:100000000C942A000C943F000C943F000C943F0089
:100010000C943F000C943F000C943F000C943F0064
:100020000C943F000C943F000C943F000C943F0054
:100030000C943F000C943F000C943F000C943F0044
:100040000C943F000C943F000C943F000C943F0034
:100050000C943F0011241FBECFE5D4E0DEBFCDBF1E
:1000600010E0A0E6B0E0E0E8F1E002C005900D92FB
:10007000A238B107D9F70E94A9000C94BE000C94D5
:10008000000088BB90989198929A81E08A95F1F748
:10009000929881E28A95F1F7089588BB909A919899
:1000A000929A81E08A95F1F7929881E28A95F1F728
:1000B00008950F931F938FEF87BB81BB929804EF36
:1000C00011E0C8010197F1F788E30E9441008EE03A
:1000D0000E94410081E00E944100C8010197F1F7B0
:1000E00086E00E9441001F910F910895DF93CF9306
:1000F00000D000D0CDB7DEB790E8998390EC9A831A
:1001000094E99B8394ED9C838150FE01E60FF11DE1
:100110009081890F0E94410081E28A95F1F70F904A
:100120000F900F900F90CF91DF9108951F93CF9371
:10013000DF93EC0110E003C00E944D001F5FFE0141
:10014000E10FF11D80818823B9F7DF91CF911F91D5
:1001500008950E94590081E061E00E94760080E6E7
:1001600090E00E94960081E062E00E9476008CE6BA
:1001700090E00E94960080E090E00895F894FFCF10
:1001800068656C6C6F204D756E696D0057656C63AA
:100190006F6D6520746F2074686520667574757264
:0201A0006500F8
:00000001FF
