:100000000C942A000C9434000C9434000C943400AA
:100010000C9434000C9434000C9434000C94340090
:100020000C9434000C9434000C9434000C94340080
:100030000C9434000C9434000C9442000C94340062
:100040000C9434000C9434000C9434000C94340060
:100050000C94340011241FBECFE5D4E0DEBFCDBF29
:100060000E9436000C946E000C9400008FEF87BB4A
:1000700086B1866086B93D9A3E9A339A379A7894CB
:10008000369AFFCF1F920F920FB60F9211242F9323
:100090003F938F939F9385B1282F30E097B190368F
:1000A00019F0913681F407C02739310514F082E048
:1000B00088BB81E606C02739310514F088E088BB8B
:1000C00080E687B901C018BA369A9F918F913F9107
:1000D0002F910F900FBE0F901F901895F894FFCF9F
:00000001FF
