:100000000C942A000C9434000C9434000C943400AA
:100010000C9434000C9434000C9434000C94340090
:100020000C9434000C9434000C9434000C94340080
:100030000C9434000C9434000C9434000C94340070
:100040000C9434000C9434000C9434000C94340060
:100050000C94340011241FBECFE5D4E0DEBFCDBF29
:100060000E9436000C9455000C9400008FEF87BB63
:100070008ABB4FEF29E130E048BB80E197E2F9010C
:100080003197F1F70197D9F718BA80E197E2F901B2
:100090003197F1F70197D9F748BB80E197E2F90171
:0E00A0003197F1F70197D9F7E7CFF894FFCF2A
:00000001FF
