:100000000C942A000C9434000C9434000C943400AA
:100010000C9434000C9434000C9434000C94340090
:100020000C9434000C9434000C9434000C94340080
:100030000C9434000C9434000C9442000C94340062
:100040000C9434000C9434000C9434000C94340060
:100050000C94340011241FBECFE5D4E0DEBFCDBF29
:100060000E9436000C9473000C9400008FEF87BB45
:1000700085E088BB329A3D9A3E9A339A379A7894B3
:10008000369AFFCF1F920F920FB60F9211242F9323
:100090008F939F9385B190E027B1213659F0223696
:1000A00089F02036B1F48536910514F082E088BBE2
:1000B00081E606C08536910514F088E088BB82E6AB
:1000C00087B908C08536910514F084E088BB80E6C6
:1000D000F7CF18BA369A9F918F912F910F900FBE3C
:0A00E0000F901F901895F894FFCFC1
:00000001FF
