:100000000C942A000C943F000C943F000C943F0089
:100010000C943F000C943F000C943F000C943F0064
:100020000C943F000C943F000C943F000C943F0054
:100030000C943F000C943F000C943F000C943F0044
:100040000C943F000C943F000C943F000C943F0034
:100050000C943F0011241FBECFE5D4E0DEBFCDBF1E
:1000600010E0A0E6B0E0EAEEF0E002C005900D92EC
:10007000A437B107D9F70E9441000C9473000C9487
:100080000000DF93CF93CDB7DEB764970FB6F89437
:10009000DEBF0FBECDBFDE011196E0E6F0E084E1E9
:1000A00001900D928150E1F78FEF8ABB20E030E0A4
:1000B000BE016F5F7F4F49E150E0F901EE0FFF1F76
:1000C000E60FF71F80818BBB80E197E2FA01319741
:1000D000F1F70197D9F72F5F3F4F2A3031056CF3C5
:0A00E00020E030E0EACFF894FFCFF3
:1000EA00C000F900A400B000990092008200F80054
:0400FA008000100072
:00000001FF
